{
  "abi": [
    {
      "inputs": [
        {
          "internalType": "contract ERC20",
          "name": "_TOKEN",
          "type": "address"
        }
      ],
      "stateMutability": "nonpayable",
      "type": "constructor"
    },
    {
      "inputs": [],
      "name": "TOKEN",
      "outputs": [
        {
          "internalType": "contract ERC20",
          "name": "",
          "type": "address"
        }
      ],
      "stateMutability": "view",
      "type": "function"
    },
    {
      "inputs": [
        {
          "internalType": "uint256",
          "name": "amount",
          "type": "uint256"
        },
        {
          "internalType": "contract IFlashBorrower",
          "name": "borrower",
          "type": "address"
        }
      ],
      "name": "borrow",
      "outputs": [],
      "stateMutability": "nonpayable",
      "type": "function"
    }
  ],
  "bytecode": {
    "object": "0x60a060405234801561001057600080fd5b5060405161046d38038061046d83398101604081905261002f91610040565b6001600160a01b0316608052610070565b60006020828403121561005257600080fd5b81516001600160a01b038116811461006957600080fd5b9392505050565b6080516103c86100a56000396000818160550152818160ab0152818161012d0152818161016b01526101f301526103c86000f3fe608060405234801561001057600080fd5b50600436106100365760003560e01c80634b3fd1481461003b57806382bfefc814610050575b600080fd5b61004e61004936600461033d565b610093565b005b6100777f000000000000000000000000000000000000000000000000000000000000000081565b6040516001600160a01b03909116815260200160405180910390f35b6040516370a0823160e01b81523060048201526000907f00000000000000000000000000000000000000000000000000000000000000006001600160a01b0316906370a0823190602401602060405180830381865afa1580156100fa573d6000803e3d6000fd5b505050506040513d601f19601f8201168201806040525081019061011e9190610379565b90506101546001600160a01b037f00000000000000000000000000000000000000000000000000000000000000001683856102bf565b6040516310e3bfe960e11b81526001600160a01b037f00000000000000000000000000000000000000000000000000000000000000008116600483015260248201859052604482018590528316906321c77fd290606401600060405180830381600087803b1580156101c557600080fd5b505af11580156101d9573d6000803e3d6000fd5b50506040516370a0823160e01b81523060048201528392507f00000000000000000000000000000000000000000000000000000000000000006001600160a01b031691506370a0823190602401602060405180830381865afa158015610243573d6000803e3d6000fd5b505050506040513d601f19601f820116820180604052508101906102679190610379565b10156102ba5760405162461bcd60e51b815260206004820152601d60248201527f426f72726f77657220646964206e6f742072657475726e2066756e647300000060448201526064015b60405180910390fd5b505050565b600060405163a9059cbb60e01b8152836004820152826024820152602060006044836000895af13d15601f3d11600160005114161716915050806103375760405162461bcd60e51b815260206004820152600f60248201526e1514905394d1915497d19052531151608a1b60448201526064016102b1565b50505050565b6000806040838503121561035057600080fd5b8235915060208301356001600160a01b038116811461036e57600080fd5b809150509250929050565b60006020828403121561038b57600080fd5b505191905056fea26469706673582212207cf12dba10c071497f10d5f2f29ab421217c2c59c9d48b77e8e2900c4e3aca7664736f6c63430008110033",
    "linkReferences": {}
  },
  "methodIdentifiers": {
    "TOKEN()": "82bfefc8",
    "borrow(uint256,address)": "4b3fd148"
  },
  "id": 22
}