{
  "abi": [
    {
      "inputs": [
        {
          "internalType": "contract ERC20",
          "name": "_TOKEN",
          "type": "address"
        },
        {
          "internalType": "uint256",
          "name": "_FEE",
          "type": "uint256"
        }
      ],
      "stateMutability": "nonpayable",
      "type": "constructor"
    },
    {
      "inputs": [],
      "name": "FEE",
      "outputs": [
        {
          "internalType": "uint256",
          "name": "",
          "type": "uint256"
        }
      ],
      "stateMutability": "view",
      "type": "function"
    },
    {
      "inputs": [],
      "name": "OWNER",
      "outputs": [
        {
          "internalType": "address",
          "name": "",
          "type": "address"
        }
      ],
      "stateMutability": "view",
      "type": "function"
    },
    {
      "inputs": [],
      "name": "TOKEN",
      "outputs": [
        {
          "internalType": "contract ERC20",
          "name": "",
          "type": "address"
        }
      ],
      "stateMutability": "view",
      "type": "function"
    },
    {
      "inputs": [
        {
          "internalType": "address",
          "name": "",
          "type": "address"
        }
      ],
      "name": "balances",
      "outputs": [
        {
          "internalType": "uint256",
          "name": "",
          "type": "uint256"
        }
      ],
      "stateMutability": "view",
      "type": "function"
    },
    {
      "inputs": [
        {
          "internalType": "uint256",
          "name": "amount",
          "type": "uint256"
        },
        {
          "internalType": "contract IFlashBorrower",
          "name": "borrower",
          "type": "address"
        }
      ],
      "name": "borrow",
      "outputs": [],
      "stateMutability": "nonpayable",
      "type": "function"
    },
    {
      "inputs": [],
      "name": "collectFees",
      "outputs": [],
      "stateMutability": "nonpayable",
      "type": "function"
    },
    {
      "inputs": [
        {
          "internalType": "uint256",
          "name": "amount",
          "type": "uint256"
        }
      ],
      "name": "deposit",
      "outputs": [],
      "stateMutability": "nonpayable",
      "type": "function"
    },
    {
      "inputs": [],
      "name": "totalFees",
      "outputs": [
        {
          "internalType": "uint256",
          "name": "",
          "type": "uint256"
        }
      ],
      "stateMutability": "view",
      "type": "function"
    },
    {
      "inputs": [
        {
          "internalType": "uint256",
          "name": "amount",
          "type": "uint256"
        }
      ],
      "name": "withdraw",
      "outputs": [],
      "stateMutability": "nonpayable",
      "type": "function"
    }
  ],
  "bytecode": {
    "object": "0x60e060405234801561001057600080fd5b5060405161097138038061097183398101604081905261002f91610049565b6001600160a01b039091166080523360a05260c052610083565b6000806040838503121561005c57600080fd5b82516001600160a01b038116811461007357600080fd5b6020939093015192949293505050565b60805160a05160c05161087a6100f76000396000818161017a01526102f4015260008181609d0152818161056001526106010152600081816101400152818161022d0152818161026f0152818161034901528181610381015281816104320152818161050601526105de015261087a6000f3fe608060405234801561001057600080fd5b50600436106100935760003560e01c80634b3fd148116100665780634b3fd1481461012857806382bfefc81461013b578063b6b55f2514610162578063c57981b514610175578063c87965721461019c57600080fd5b8063117803e31461009857806313114a9d146100dc57806327e235e3146100f35780632e1a7d4d14610113575b600080fd5b6100bf7f000000000000000000000000000000000000000000000000000000000000000081565b6040516001600160a01b0390911681526020015b60405180910390f35b6100e560005481565b6040519081526020016100d3565b6100e5610101366004610743565b60016020526000908152604090205481565b610126610121366004610767565b6101a4565b005b610126610136366004610780565b610257565b6100bf7f000000000000000000000000000000000000000000000000000000000000000081565b610126610170366004610767565b6104f9565b6100e57f000000000000000000000000000000000000000000000000000000000000000081565b610126610555565b336000908152600160205260409020548111156101fb5760405162461bcd60e51b815260206004820152601060248201526f4e6f7420656e6f7567682066756e647360801b60448201526064015b60405180910390fd5b336000908152600160205260408120805483929061021a9084906107c6565b9091555061025490506001600160a01b037f000000000000000000000000000000000000000000000000000000000000000016338361062c565b50565b6040516370a0823160e01b81523060048201526000907f00000000000000000000000000000000000000000000000000000000000000006001600160a01b0316906370a0823190602401602060405180830381865afa1580156102be573d6000803e3d6000fd5b505050506040513d601f19601f820116820180604052508101906102e291906107df565b90506000670de0b6b3a76400006103197f0000000000000000000000000000000000000000000000000000000000000000866107f8565b610323919061080f565b9050806000808282546103369190610831565b9091555061037090506001600160a01b037f000000000000000000000000000000000000000000000000000000000000000016848661062c565b6001600160a01b0383166321c77fd27f0000000000000000000000000000000000000000000000000000000000000000866103ab8582610831565b6040516001600160e01b031960e086901b1681526001600160a01b03909316600484015260248301919091526044820152606401600060405180830381600087803b1580156103f957600080fd5b505af115801561040d573d6000803e3d6000fd5b50505050808261041d9190610831565b6040516370a0823160e01b81523060048201527f00000000000000000000000000000000000000000000000000000000000000006001600160a01b0316906370a0823190602401602060405180830381865afa158015610481573d6000803e3d6000fd5b505050506040513d601f19601f820116820180604052508101906104a591906107df565b10156104f35760405162461bcd60e51b815260206004820152601d60248201527f426f72726f77657220646964206e6f742072657475726e2066756e647300000060448201526064016101f2565b50505050565b61052e6001600160a01b037f0000000000000000000000000000000000000000000000000000000000000000163330846106a4565b336000908152600160205260408120805483929061054d908490610831565b909155505050565b336001600160a01b037f000000000000000000000000000000000000000000000000000000000000000016146105cd5760405162461bcd60e51b815260206004820152601f60248201527f4f6e6c7920746865206f776e65722063616e20636f6c6c65637420666565730060448201526064016101f2565b600054610626906001600160a01b037f000000000000000000000000000000000000000000000000000000000000000016907f00000000000000000000000000000000000000000000000000000000000000009061062c565b60008055565b600060405163a9059cbb60e01b8152836004820152826024820152602060006044836000895af13d15601f3d11600160005114161716915050806104f35760405162461bcd60e51b815260206004820152600f60248201526e1514905394d1915497d19052531151608a1b60448201526064016101f2565b60006040516323b872dd60e01b81528460048201528360248201528260448201526020600060648360008a5af13d15601f3d11600160005114161716915050806107275760405162461bcd60e51b81526020600482015260146024820152731514905394d1915497d19493d357d1905253115160621b60448201526064016101f2565b5050505050565b6001600160a01b038116811461025457600080fd5b60006020828403121561075557600080fd5b81356107608161072e565b9392505050565b60006020828403121561077957600080fd5b5035919050565b6000806040838503121561079357600080fd5b8235915060208301356107a58161072e565b809150509250929050565b634e487b7160e01b600052601160045260246000fd5b818103818111156107d9576107d96107b0565b92915050565b6000602082840312156107f157600080fd5b5051919050565b80820281158282048414176107d9576107d96107b0565b60008261082c57634e487b7160e01b600052601260045260246000fd5b500490565b808201808211156107d9576107d96107b056fea2646970667358221220cc20a15e5a0653dd2a99e3a0600221147ecdbc808b10dcf6f6679ec399bbdbcc64736f6c63430008110033",
    "linkReferences": {}
  },
  "methodIdentifiers": {
    "FEE()": "c57981b5",
    "OWNER()": "117803e3",
    "TOKEN()": "82bfefc8",
    "balances(address)": "27e235e3",
    "borrow(uint256,address)": "4b3fd148",
    "collectFees()": "c8796572",
    "deposit(uint256)": "b6b55f25",
    "totalFees()": "13114a9d",
    "withdraw(uint256)": "2e1a7d4d"
  },
  "id": 21
}