{
  "abi": [
    {
      "inputs": [
        {
          "internalType": "contract ERC20",
          "name": "_TOKEN",
          "type": "address"
        },
        {
          "internalType": "uint256",
          "name": "_FEE",
          "type": "uint256"
        }
      ],
      "stateMutability": "nonpayable",
      "type": "constructor"
    },
    {
      "anonymous": false,
      "inputs": [
        {
          "indexed": true,
          "internalType": "address",
          "name": "owner",
          "type": "address"
        },
        {
          "indexed": true,
          "internalType": "address",
          "name": "spender",
          "type": "address"
        },
        {
          "indexed": false,
          "internalType": "uint256",
          "name": "amount",
          "type": "uint256"
        }
      ],
      "name": "Approval",
      "type": "event"
    },
    {
      "anonymous": false,
      "inputs": [
        {
          "indexed": true,
          "internalType": "address",
          "name": "from",
          "type": "address"
        },
        {
          "indexed": true,
          "internalType": "address",
          "name": "to",
          "type": "address"
        },
        {
          "indexed": false,
          "internalType": "uint256",
          "name": "amount",
          "type": "uint256"
        }
      ],
      "name": "Transfer",
      "type": "event"
    },
    {
      "inputs": [],
      "name": "DOMAIN_SEPARATOR",
      "outputs": [
        {
          "internalType": "bytes32",
          "name": "",
          "type": "bytes32"
        }
      ],
      "stateMutability": "view",
      "type": "function"
    },
    {
      "inputs": [],
      "name": "FEE",
      "outputs": [
        {
          "internalType": "uint256",
          "name": "",
          "type": "uint256"
        }
      ],
      "stateMutability": "view",
      "type": "function"
    },
    {
      "inputs": [],
      "name": "TOKEN",
      "outputs": [
        {
          "internalType": "contract ERC20",
          "name": "",
          "type": "address"
        }
      ],
      "stateMutability": "view",
      "type": "function"
    },
    {
      "inputs": [
        {
          "internalType": "address",
          "name": "",
          "type": "address"
        },
        {
          "internalType": "address",
          "name": "",
          "type": "address"
        }
      ],
      "name": "allowance",
      "outputs": [
        {
          "internalType": "uint256",
          "name": "",
          "type": "uint256"
        }
      ],
      "stateMutability": "view",
      "type": "function"
    },
    {
      "inputs": [
        {
          "internalType": "address",
          "name": "spender",
          "type": "address"
        },
        {
          "internalType": "uint256",
          "name": "amount",
          "type": "uint256"
        }
      ],
      "name": "approve",
      "outputs": [
        {
          "internalType": "bool",
          "name": "",
          "type": "bool"
        }
      ],
      "stateMutability": "nonpayable",
      "type": "function"
    },
    {
      "inputs": [
        {
          "internalType": "address",
          "name": "",
          "type": "address"
        }
      ],
      "name": "balanceOf",
      "outputs": [
        {
          "internalType": "uint256",
          "name": "",
          "type": "uint256"
        }
      ],
      "stateMutability": "view",
      "type": "function"
    },
    {
      "inputs": [
        {
          "internalType": "address",
          "name": "account",
          "type": "address"
        }
      ],
      "name": "balanceOfUnderlying",
      "outputs": [
        {
          "internalType": "uint256",
          "name": "",
          "type": "uint256"
        }
      ],
      "stateMutability": "view",
      "type": "function"
    },
    {
      "inputs": [
        {
          "internalType": "uint256",
          "name": "amount",
          "type": "uint256"
        },
        {
          "internalType": "contract IFlashBorrower",
          "name": "borrower",
          "type": "address"
        }
      ],
      "name": "borrow",
      "outputs": [],
      "stateMutability": "nonpayable",
      "type": "function"
    },
    {
      "inputs": [],
      "name": "decimals",
      "outputs": [
        {
          "internalType": "uint8",
          "name": "",
          "type": "uint8"
        }
      ],
      "stateMutability": "view",
      "type": "function"
    },
    {
      "inputs": [
        {
          "internalType": "uint256",
          "name": "amount",
          "type": "uint256"
        }
      ],
      "name": "deposit",
      "outputs": [],
      "stateMutability": "nonpayable",
      "type": "function"
    },
    {
      "inputs": [],
      "name": "inFlashLoan",
      "outputs": [
        {
          "internalType": "bool",
          "name": "",
          "type": "bool"
        }
      ],
      "stateMutability": "view",
      "type": "function"
    },
    {
      "inputs": [],
      "name": "name",
      "outputs": [
        {
          "internalType": "string",
          "name": "",
          "type": "string"
        }
      ],
      "stateMutability": "view",
      "type": "function"
    },
    {
      "inputs": [
        {
          "internalType": "address",
          "name": "",
          "type": "address"
        }
      ],
      "name": "nonces",
      "outputs": [
        {
          "internalType": "uint256",
          "name": "",
          "type": "uint256"
        }
      ],
      "stateMutability": "view",
      "type": "function"
    },
    {
      "inputs": [
        {
          "internalType": "address",
          "name": "owner",
          "type": "address"
        },
        {
          "internalType": "address",
          "name": "spender",
          "type": "address"
        },
        {
          "internalType": "uint256",
          "name": "value",
          "type": "uint256"
        },
        {
          "internalType": "uint256",
          "name": "deadline",
          "type": "uint256"
        },
        {
          "internalType": "uint8",
          "name": "v",
          "type": "uint8"
        },
        {
          "internalType": "bytes32",
          "name": "r",
          "type": "bytes32"
        },
        {
          "internalType": "bytes32",
          "name": "s",
          "type": "bytes32"
        }
      ],
      "name": "permit",
      "outputs": [],
      "stateMutability": "nonpayable",
      "type": "function"
    },
    {
      "inputs": [],
      "name": "sharePrice",
      "outputs": [
        {
          "internalType": "uint256",
          "name": "",
          "type": "uint256"
        }
      ],
      "stateMutability": "view",
      "type": "function"
    },
    {
      "inputs": [],
      "name": "symbol",
      "outputs": [
        {
          "internalType": "string",
          "name": "",
          "type": "string"
        }
      ],
      "stateMutability": "view",
      "type": "function"
    },
    {
      "inputs": [],
      "name": "totalSupply",
      "outputs": [
        {
          "internalType": "uint256",
          "name": "",
          "type": "uint256"
        }
      ],
      "stateMutability": "view",
      "type": "function"
    },
    {
      "inputs": [
        {
          "internalType": "address",
          "name": "to",
          "type": "address"
        },
        {
          "internalType": "uint256",
          "name": "amount",
          "type": "uint256"
        }
      ],
      "name": "transfer",
      "outputs": [
        {
          "internalType": "bool",
          "name": "",
          "type": "bool"
        }
      ],
      "stateMutability": "nonpayable",
      "type": "function"
    },
    {
      "inputs": [
        {
          "internalType": "address",
          "name": "from",
          "type": "address"
        },
        {
          "internalType": "address",
          "name": "to",
          "type": "address"
        },
        {
          "internalType": "uint256",
          "name": "amount",
          "type": "uint256"
        }
      ],
      "name": "transferFrom",
      "outputs": [
        {
          "internalType": "bool",
          "name": "",
          "type": "bool"
        }
      ],
      "stateMutability": "nonpayable",
      "type": "function"
    },
    {
      "inputs": [
        {
          "internalType": "uint256",
          "name": "amount",
          "type": "uint256"
        }
      ],
      "name": "withdraw",
      "outputs": [],
      "stateMutability": "nonpayable",
      "type": "function"
    }
  ],
  "bytecode": {
    "object": "0x6101206040523480156200001257600080fd5b50604051620018873803806200188783398101604081905262000035916200017a565b6040518060400160405280601b81526020017f416476616e63656420466c617368204c656e64657220536861726500000000008152506040518060400160405280600481526020016341464c5360e01b815250601282600090816200009b91906200025b565b506001620000aa83826200025b565b5060ff81166080524660a052620000c0620000de565b60c0525050506001600160a01b0390911660e05261010052620003a5565b60007f8b73c3c69bb8fe3d512ecc4cf759cc79239f7b179b0ffacaa9a75d522b39400f600060405162000112919062000327565b6040805191829003822060208301939093528101919091527fc89efdaa54c0f20c7adf612882df0950f5a951637e0307cdcb4c672f298b8bc660608201524660808201523060a082015260c00160405160208183030381529060405280519060200120905090565b600080604083850312156200018e57600080fd5b82516001600160a01b0381168114620001a657600080fd5b6020939093015192949293505050565b634e487b7160e01b600052604160045260246000fd5b600181811c90821680620001e157607f821691505b6020821081036200020257634e487b7160e01b600052602260045260246000fd5b50919050565b601f8211156200025657600081815260208120601f850160051c81016020861015620002315750805b601f850160051c820191505b8181101562000252578281556001016200023d565b5050505b505050565b81516001600160401b03811115620002775762000277620001b6565b6200028f81620002888454620001cc565b8462000208565b602080601f831160018114620002c75760008415620002ae5750858301515b600019600386901b1c1916600185901b17855562000252565b600085815260208120601f198616915b82811015620002f857888601518255948401946001909101908401620002d7565b5085821015620003175787850151600019600388901b60f8161c191681555b5050505050600190811b01905550565b60008083546200033781620001cc565b60018281168015620003525760018114620003685762000399565b60ff198416875282151583028701945062000399565b8760005260208060002060005b85811015620003905781548a82015290840190820162000375565b50505082870194505b50929695505050505050565b60805160a05160c05160e0516101005161146562000422600039600081816102df015261081801526000818161025d0152818161063e0152818161079b015281816108560152818161088e0152818161093f01528181610a2e0152610bcc015260006106a20152600061066d015260006101b601526114656000f3fe608060405234801561001057600080fd5b506004361061012c5760003560e01c80637ecebe00116100ad578063a9059cbb11610071578063a9059cbb146102b4578063b6b55f25146102c7578063c57981b5146102da578063d505accf14610301578063dd62ed3e1461031457600080fd5b80637ecebe001461023857806382bfefc814610258578063872697291461029757806387adc4441461029f57806395d89b41146102ac57600080fd5b8063313ce567116100f4578063313ce567146101b15780633644e515146101ea5780633af9e669146101f25780634b3fd1481461020557806370a082311461021857600080fd5b806306fdde0314610131578063095ea7b31461014f57806318160ddd1461017257806323b872dd146101895780632e1a7d4d1461019c575b600080fd5b61013961033f565b60405161014691906110c6565b60405180910390f35b61016261015d366004611129565b6103cd565b6040519015158152602001610146565b61017b60025481565b604051908152602001610146565b610162610197366004611155565b61043a565b6101af6101aa366004611196565b61051a565b005b6101d87f000000000000000000000000000000000000000000000000000000000000000081565b60405160ff9091168152602001610146565b61017b610669565b61017b6102003660046111af565b6106c4565b6101af6102133660046111d3565b61076e565b61017b6102263660046111af565b60036020526000908152604090205481565b61017b6102463660046111af565b60056020526000908152604090205481565b61027f7f000000000000000000000000000000000000000000000000000000000000000081565b6040516001600160a01b039091168152602001610146565b61017b610a10565b6006546101629060ff1681565b610139610ae7565b6101626102c2366004611129565b610af4565b6101af6102d5366004611196565b610b5a565b61017b7f000000000000000000000000000000000000000000000000000000000000000081565b6101af61030f366004611203565b610c24565b61017b61032236600461127a565b600460209081526000928352604080842090915290825290205481565b6000805461034c906112a8565b80601f0160208091040260200160405190810160405280929190818152602001828054610378906112a8565b80156103c55780601f1061039a576101008083540402835291602001916103c5565b820191906000526020600020905b8154815290600101906020018083116103a857829003601f168201915b505050505081565b3360008181526004602090815260408083206001600160a01b038716808552925280832085905551919290917f8c5be1e5ebec7d5bd14f71427d1e84f3dd0314c0f7b2291e5b200ac8c7c3b925906104289086815260200190565b60405180910390a35060015b92915050565b6001600160a01b038316600090815260046020908152604080832033845290915281205460001981146104965761047183826112f8565b6001600160a01b03861660009081526004602090815260408083203384529091529020555b6001600160a01b038516600090815260036020526040812080548592906104be9084906112f8565b90915550506001600160a01b0380851660008181526003602052604090819020805487019055519091871690600080516020611410833981519152906105079087815260200190565b60405180910390a3506001949350505050565b60065460ff16156105855760405162461bcd60e51b815260206004820152602a60248201527f43616e6e6f74207769746864726177207768696c6520666c617368206c6f616e6044820152692069732061637469766560b01b60648201526084015b60405180910390fd5b6000670de0b6b3a764000082610599610a10565b6105a3919061130b565b6105ad9190611322565b336000908152600360205260409020549091508111156106025760405162461bcd60e51b815260206004820152601060248201526f4e6f7420656e6f7567682066756e647360801b604482015260640161057c565b61063133670de0b6b3a764000084610618610a10565b610622919061130b565b61062c9190611322565b610e68565b6106656001600160a01b037f0000000000000000000000000000000000000000000000000000000000000000163384610ed2565b5050565b60007f0000000000000000000000000000000000000000000000000000000000000000461461069f5761069a610f50565b905090565b507f000000000000000000000000000000000000000000000000000000000000000090565b60065460009060ff16156107305760405162461bcd60e51b815260206004820152602d60248201527f43616e6e6f742063616c6c20746869732066756e6374696f6e20647572696e6760448201526c103090333630b9b4103637b0b760991b606482015260840161057c565b670de0b6b3a7640000610741610a10565b6001600160a01b038416600090815260036020526040902054610764919061130b565b6104349190611322565b6006805460ff191660011790556040516370a0823160e01b81523060048201526000906001600160a01b037f000000000000000000000000000000000000000000000000000000000000000016906370a0823190602401602060405180830381865afa1580156107e2573d6000803e3d6000fd5b505050506040513d601f19601f820116820180604052508101906108069190611344565b90506000670de0b6b3a764000061083d7f00000000000000000000000000000000000000000000000000000000000000008661130b565b6108479190611322565b905061087d6001600160a01b037f0000000000000000000000000000000000000000000000000000000000000000168486610ed2565b6001600160a01b0383166321c77fd27f0000000000000000000000000000000000000000000000000000000000000000866108b8858261135d565b6040516001600160e01b031960e086901b1681526001600160a01b03909316600484015260248301919091526044820152606401600060405180830381600087803b15801561090657600080fd5b505af115801561091a573d6000803e3d6000fd5b50505050808261092a919061135d565b6040516370a0823160e01b81523060048201527f00000000000000000000000000000000000000000000000000000000000000006001600160a01b0316906370a0823190602401602060405180830381865afa15801561098e573d6000803e3d6000fd5b505050506040513d601f19601f820116820180604052508101906109b29190611344565b1015610a005760405162461bcd60e51b815260206004820152601d60248201527f426f72726f77657220646964206e6f742072657475726e2066756e6473000000604482015260640161057c565b50506006805460ff191690555050565b6002546040516370a0823160e01b81523060048201526000919082907f00000000000000000000000000000000000000000000000000000000000000006001600160a01b0316906370a0823190602401602060405180830381865afa158015610a7d573d6000803e3d6000fd5b505050506040513d601f19601f82011682018060405250810190610aa19190611344565b9050811580610aae575080155b15610ac357670de0b6b3a76400009250505090565b81610ad682670de0b6b3a764000061130b565b610ae09190611322565b9250505090565b6001805461034c906112a8565b33600090815260036020526040812080548391908390610b159084906112f8565b90915550506001600160a01b03831660008181526003602052604090819020805485019055513390600080516020611410833981519152906104289086815260200190565b60065460ff1615610bbf5760405162461bcd60e51b815260206004820152602960248201527f43616e6e6f74206465706f736974207768696c6520666c617368206c6f616e2060448201526869732061637469766560b81b606482015260840161057c565b610bf46001600160a01b037f000000000000000000000000000000000000000000000000000000000000000016333084610fea565b610c2133610c00610a10565b610c1284670de0b6b3a764000061130b565b610c1c9190611322565b611074565b50565b42841015610c745760405162461bcd60e51b815260206004820152601760248201527f5045524d49545f444541444c494e455f45585049524544000000000000000000604482015260640161057c565b60006001610c80610669565b6001600160a01b038a811660008181526005602090815260409182902080546001810190915582517f6e71edae12b1b97f4d1f60370fef10105fa2faae0126114a169c64845d6126c98184015280840194909452938d166060840152608083018c905260a083019390935260c08083018b90528151808403909101815260e08301909152805192019190912061190160f01b6101008301526101028201929092526101228101919091526101420160408051601f198184030181528282528051602091820120600084529083018083525260ff871690820152606081018590526080810184905260a0016020604051602081039080840390855afa158015610d8c573d6000803e3d6000fd5b5050604051601f1901519150506001600160a01b03811615801590610dc25750876001600160a01b0316816001600160a01b0316145b610dff5760405162461bcd60e51b815260206004820152600e60248201526d24a72b20a624a22fa9a4a3a722a960911b604482015260640161057c565b6001600160a01b0390811660009081526004602090815260408083208a8516808552908352928190208990555188815291928a16917f8c5be1e5ebec7d5bd14f71427d1e84f3dd0314c0f7b2291e5b200ac8c7c3b925910160405180910390a350505050505050565b6001600160a01b03821660009081526003602052604081208054839290610e909084906112f8565b90915550506002805482900390556040518181526000906001600160a01b03841690600080516020611410833981519152906020015b60405180910390a35050565b600060405163a9059cbb60e01b8152836004820152826024820152602060006044836000895af13d15601f3d1160016000511416171691505080610f4a5760405162461bcd60e51b815260206004820152600f60248201526e1514905394d1915497d19052531151608a1b604482015260640161057c565b50505050565b60007f8b73c3c69bb8fe3d512ecc4cf759cc79239f7b179b0ffacaa9a75d522b39400f6000604051610f829190611370565b6040805191829003822060208301939093528101919091527fc89efdaa54c0f20c7adf612882df0950f5a951637e0307cdcb4c672f298b8bc660608201524660808201523060a082015260c00160405160208183030381529060405280519060200120905090565b60006040516323b872dd60e01b81528460048201528360248201528260448201526020600060648360008a5af13d15601f3d116001600051141617169150508061106d5760405162461bcd60e51b81526020600482015260146024820152731514905394d1915497d19493d357d1905253115160621b604482015260640161057c565b5050505050565b8060026000828254611086919061135d565b90915550506001600160a01b0382166000818152600360209081526040808320805486019055518481526000805160206114108339815191529101610ec6565b600060208083528351808285015260005b818110156110f3578581018301518582016040015282016110d7565b506000604082860101526040601f19601f8301168501019250505092915050565b6001600160a01b0381168114610c2157600080fd5b6000806040838503121561113c57600080fd5b823561114781611114565b946020939093013593505050565b60008060006060848603121561116a57600080fd5b833561117581611114565b9250602084013561118581611114565b929592945050506040919091013590565b6000602082840312156111a857600080fd5b5035919050565b6000602082840312156111c157600080fd5b81356111cc81611114565b9392505050565b600080604083850312156111e657600080fd5b8235915060208301356111f881611114565b809150509250929050565b600080600080600080600060e0888a03121561121e57600080fd5b873561122981611114565b9650602088013561123981611114565b95506040880135945060608801359350608088013560ff8116811461125d57600080fd5b9699959850939692959460a0840135945060c09093013592915050565b6000806040838503121561128d57600080fd5b823561129881611114565b915060208301356111f881611114565b600181811c908216806112bc57607f821691505b6020821081036112dc57634e487b7160e01b600052602260045260246000fd5b50919050565b634e487b7160e01b600052601160045260246000fd5b81810381811115610434576104346112e2565b8082028115828204841417610434576104346112e2565b60008261133f57634e487b7160e01b600052601260045260246000fd5b500490565b60006020828403121561135657600080fd5b5051919050565b80820180821115610434576104346112e2565b600080835481600182811c91508083168061138c57607f831692505b602080841082036113ab57634e487b7160e01b86526022600452602486fd5b8180156113bf57600181146113d457611401565b60ff1986168952841515850289019650611401565b60008a81526020902060005b868110156113f95781548b8201529085019083016113e0565b505084890196505b50949897505050505050505056feddf252ad1be2c89b69c2b068fc378daa952ba7f163c4a11628f55a4df523b3efa2646970667358221220a6b733d0527ebef892d51005a6d10bd8fdb79a71f959492c9553406156b4eb7b64736f6c63430008110033",
    "linkReferences": {}
  },
  "methodIdentifiers": {
    "DOMAIN_SEPARATOR()": "3644e515",
    "FEE()": "c57981b5",
    "TOKEN()": "82bfefc8",
    "allowance(address,address)": "dd62ed3e",
    "approve(address,uint256)": "095ea7b3",
    "balanceOf(address)": "70a08231",
    "balanceOfUnderlying(address)": "3af9e669",
    "borrow(uint256,address)": "4b3fd148",
    "decimals()": "313ce567",
    "deposit(uint256)": "b6b55f25",
    "inFlashLoan()": "87adc444",
    "name()": "06fdde03",
    "nonces(address)": "7ecebe00",
    "permit(address,address,uint256,uint256,uint8,bytes32,bytes32)": "d505accf",
    "sharePrice()": "87269729",
    "symbol()": "95d89b41",
    "totalSupply()": "18160ddd",
    "transfer(address,uint256)": "a9059cbb",
    "transferFrom(address,address,uint256)": "23b872dd",
    "withdraw(uint256)": "2e1a7d4d"
  },
  "id": 20
}